{
  "_format": "hh-sol-artifact-1",
  "contractName": "SportsVybe",
  "sourceName": "contracts/SportsVybe.sol",
  "abi": [
    {
      "inputs": [
        {
          "internalType": "address",
          "name": "_sportsVybeToken",
          "type": "address"
        }
      ],
      "stateMutability": "nonpayable",
      "type": "constructor"
    },
    {
      "inputs": [
        {
          "internalType": "uint256",
          "name": "",
          "type": "uint256"
        }
      ],
      "name": "ChallengeAlreadyAccepted",
      "type": "error"
    },
    {
      "inputs": [
        {
          "internalType": "uint256",
          "name": "",
          "type": "uint256"
        }
      ],
      "name": "ChallengeClosed",
      "type": "error"
    },
    {
      "inputs": [
        {
          "internalType": "uint256",
          "name": "",
          "type": "uint256"
        },
        {
          "internalType": "address",
          "name": "",
          "type": "address"
        }
      ],
      "name": "Duplicate_Vote",
      "type": "error"
    },
    {
      "inputs": [
        {
          "internalType": "uint256",
          "name": "",
          "type": "uint256"
        }
      ],
      "name": "FailedChallengeCreation_ReflexiveTeam",
      "type": "error"
    },
    {
      "inputs": [
        {
          "internalType": "uint256",
          "name": "",
          "type": "uint256"
        },
        {
          "internalType": "uint256",
          "name": "",
          "type": "uint256"
        }
      ],
      "name": "FailedEventCreation_InsufficientBalance",
      "type": "error"
    },
    {
      "inputs": [
        {
          "internalType": "uint256",
          "name": "",
          "type": "uint256"
        },
        {
          "internalType": "uint256",
          "name": "",
          "type": "uint256"
        }
      ],
      "name": "InsufficientAmount",
      "type": "error"
    },
    {
      "inputs": [
        {
          "internalType": "uint256",
          "name": "",
          "type": "uint256"
        }
      ],
      "name": "Invalid_Team",
      "type": "error"
    },
    {
      "inputs": [
        {
          "internalType": "uint256",
          "name": "",
          "type": "uint256"
        },
        {
          "internalType": "uint256",
          "name": "",
          "type": "uint256"
        }
      ],
      "name": "NotAllowed_For_Challenge",
      "type": "error"
    },
    {
      "inputs": [
        {
          "internalType": "string",
          "name": "",
          "type": "string"
        }
      ],
      "name": "NotFound",
      "type": "error"
    },
    {
      "inputs": [
        {
          "internalType": "uint256",
          "name": "",
          "type": "uint256"
        },
        {
          "internalType": "address",
          "name": "",
          "type": "address"
        }
      ],
      "name": "NotFoundMembershipRequest",
      "type": "error"
    },
    {
      "inputs": [
        {
          "internalType": "uint256",
          "name": "",
          "type": "uint256"
        }
      ],
      "name": "Team_Unauthorized",
      "type": "error"
    },
    {
      "inputs": [
        {
          "internalType": "uint256",
          "name": "",
          "type": "uint256"
        }
      ],
      "name": "Vote_Unauthorized",
      "type": "error"
    },
    {
      "anonymous": false,
      "inputs": [
        {
          "indexed": false,
          "internalType": "uint256",
          "name": "challenge_id",
          "type": "uint256"
        }
      ],
      "name": "ChallengePoolClosed",
      "type": "event"
    },
    {
      "anonymous": false,
      "inputs": [
        {
          "indexed": false,
          "internalType": "uint256",
          "name": "challenge_id",
          "type": "uint256"
        },
        {
          "indexed": false,
          "internalType": "uint256",
          "name": "amount",
          "type": "uint256"
        },
        {
          "indexed": false,
          "internalType": "uint256",
          "name": "team_id",
          "type": "uint256"
        },
        {
          "indexed": false,
          "internalType": "uint256",
          "name": "challenged_team_id",
          "type": "uint256"
        }
      ],
      "name": "ChallengePoolCreated",
      "type": "event"
    },
    {
      "anonymous": false,
      "inputs": [
        {
          "indexed": false,
          "internalType": "uint256",
          "name": "challenge_id",
          "type": "uint256"
        },
        {
          "indexed": false,
          "internalType": "uint256",
          "name": "team_id",
          "type": "uint256"
        }
      ],
      "name": "DidNotShowUp",
      "type": "event"
    },
    {
      "anonymous": false,
      "inputs": [
        {
          "indexed": false,
          "internalType": "uint256",
          "name": "challenge_id",
          "type": "uint256"
        },
        {
          "indexed": false,
          "internalType": "uint256",
          "name": "team1",
          "type": "uint256"
        },
        {
          "indexed": false,
          "internalType": "uint256",
          "name": "team2",
          "type": "uint256"
        }
      ],
      "name": "EventCreated",
      "type": "event"
    },
    {
      "anonymous": false,
      "inputs": [
        {
          "indexed": false,
          "internalType": "uint256",
          "name": "challenge_id",
          "type": "uint256"
        },
        {
          "indexed": false,
          "internalType": "uint256",
          "name": "team_id",
          "type": "uint256"
        }
      ],
      "name": "Lose",
      "type": "event"
    },
    {
      "anonymous": false,
      "inputs": [
        {
          "indexed": false,
          "internalType": "uint256",
          "name": "team_id",
          "type": "uint256"
        }
      ],
      "name": "MembershipRequestSent",
      "type": "event"
    },
    {
      "anonymous": false,
      "inputs": [
        {
          "indexed": false,
          "internalType": "uint256",
          "name": "team_id",
          "type": "uint256"
        },
        {
          "indexed": false,
          "internalType": "address",
          "name": "user",
          "type": "address"
        }
      ],
      "name": "NewTeamMate",
      "type": "event"
    },
    {
      "anonymous": false,
      "inputs": [
        {
          "indexed": true,
          "internalType": "address",
          "name": "previousOwner",
          "type": "address"
        },
        {
          "indexed": true,
          "internalType": "address",
          "name": "newOwner",
          "type": "address"
        }
      ],
      "name": "OwnershipTransferred",
      "type": "event"
    },
    {
      "anonymous": false,
      "inputs": [
        {
          "indexed": false,
          "internalType": "uint256",
          "name": "team_id",
          "type": "uint256"
        }
      ],
      "name": "TeamCreated",
      "type": "event"
    },
    {
      "anonymous": false,
      "inputs": [
        {
          "indexed": false,
          "internalType": "uint256",
          "name": "challenge_id",
          "type": "uint256"
        },
        {
          "indexed": false,
          "internalType": "uint256",
          "name": "team_id",
          "type": "uint256"
        }
      ],
      "name": "Tie",
      "type": "event"
    },
    {
      "anonymous": false,
      "inputs": [
        {
          "indexed": false,
          "internalType": "address",
          "name": "user",
          "type": "address"
        },
        {
          "indexed": false,
          "internalType": "uint256",
          "name": "challenge_id",
          "type": "uint256"
        },
        {
          "indexed": false,
          "internalType": "uint256",
          "name": "team_id",
          "type": "uint256"
        }
      ],
      "name": "VoteSubmit",
      "type": "event"
    },
    {
      "anonymous": false,
      "inputs": [
        {
          "indexed": false,
          "internalType": "uint256",
          "name": "challenge_id",
          "type": "uint256"
        },
        {
          "indexed": false,
          "internalType": "uint256",
          "name": "team_id",
          "type": "uint256"
        }
      ],
      "name": "Win",
      "type": "event"
    },
    {
      "inputs": [
        {
          "internalType": "uint256",
          "name": "challenge_id",
          "type": "uint256"
        },
        {
          "internalType": "uint256",
          "name": "team_id",
          "type": "uint256"
        },
        {
          "internalType": "uint256",
          "name": "amount",
          "type": "uint256"
        }
      ],
      "name": "acceptChallenge",
      "outputs": [
        {
          "internalType": "bool",
          "name": "",
          "type": "bool"
        }
      ],
      "stateMutability": "payable",
      "type": "function"
    },
    {
      "inputs": [
        {
          "internalType": "uint256",
          "name": "team_id",
          "type": "uint256"
        }
      ],
      "name": "acceptMembershipTeamRequest",
      "outputs": [
        {
          "internalType": "bool",
          "name": "",
          "type": "bool"
        }
      ],
      "stateMutability": "nonpayable",
      "type": "function"
    },
    {
      "inputs": [
        {
          "internalType": "uint256",
          "name": "",
          "type": "uint256"
        }
      ],
      "name": "challengePools",
      "outputs": [
        {
          "internalType": "uint256",
          "name": "team1",
          "type": "uint256"
        },
        {
          "internalType": "uint256",
          "name": "team2",
          "type": "uint256"
        },
        {
          "internalType": "uint256",
          "name": "amount",
          "type": "uint256"
        },
        {
          "internalType": "bool",
          "name": "isAccepted",
          "type": "bool"
        },
        {
          "internalType": "bool",
          "name": "isClosed",
          "type": "bool"
        },
        {
          "internalType": "bool",
          "name": "isCompleted",
          "type": "bool"
        },
        {
          "internalType": "uint256",
          "name": "createdAt",
          "type": "uint256"
        },
        {
          "internalType": "uint256",
          "name": "interval",
          "type": "uint256"
        },
        {
          "internalType": "uint256",
          "name": "team1_count",
          "type": "uint256"
        },
        {
          "internalType": "uint256",
          "name": "team2_count",
          "type": "uint256"
        }
      ],
      "stateMutability": "view",
      "type": "function"
    },
    {
      "inputs": [
        {
          "internalType": "bytes",
          "name": "",
          "type": "bytes"
        }
      ],
      "name": "checkUpkeep",
      "outputs": [
        {
          "internalType": "bool",
          "name": "upkeepNeeded",
          "type": "bool"
        },
        {
          "internalType": "bytes",
          "name": "performData",
          "type": "bytes"
        }
      ],
      "stateMutability": "view",
      "type": "function"
    },
    {
      "inputs": [
        {
          "internalType": "uint256",
          "name": "team_id",
          "type": "uint256"
        },
        {
          "internalType": "uint256",
          "name": "challenged_team_id",
          "type": "uint256"
        },
        {
          "internalType": "uint256",
          "name": "amount",
          "type": "uint256"
        }
      ],
      "name": "createChallengePool",
      "outputs": [
        {
          "internalType": "uint256",
          "name": "",
          "type": "uint256"
        }
      ],
      "stateMutability": "payable",
      "type": "function"
    },
    {
      "inputs": [],
      "name": "createTeam",
      "outputs": [
        {
          "internalType": "uint256",
          "name": "",
          "type": "uint256"
        }
      ],
      "stateMutability": "nonpayable",
      "type": "function"
    },
    {
      "inputs": [
        {
          "internalType": "uint256",
          "name": "challenge_id",
          "type": "uint256"
        },
        {
          "internalType": "uint256",
          "name": "team_id",
          "type": "uint256"
        }
      ],
      "name": "delineChallenge",
      "outputs": [
        {
          "internalType": "bool",
          "name": "",
          "type": "bool"
        }
      ],
      "stateMutability": "nonpayable",
      "type": "function"
    },
    {
      "inputs": [
        {
          "internalType": "uint256",
          "name": "challenge_id",
          "type": "uint256"
        }
      ],
      "name": "getChallengePoolTeamMembers",
      "outputs": [
        {
          "internalType": "address[]",
          "name": "",
          "type": "address[]"
        }
      ],
      "stateMutability": "view",
      "type": "function"
    },
    {
      "inputs": [],
      "name": "getSVTAllowance",
      "outputs": [
        {
          "internalType": "uint256",
          "name": "",
          "type": "uint256"
        }
      ],
      "stateMutability": "view",
      "type": "function"
    },
    {
      "inputs": [],
      "name": "getSVTBalance",
      "outputs": [
        {
          "internalType": "uint256",
          "name": "",
          "type": "uint256"
        }
      ],
      "stateMutability": "view",
      "type": "function"
    },
    {
      "inputs": [
        {
          "internalType": "uint256",
          "name": "team_id",
          "type": "uint256"
        }
      ],
      "name": "getTeamCount",
      "outputs": [
        {
          "internalType": "uint256",
          "name": "",
          "type": "uint256"
        }
      ],
      "stateMutability": "view",
      "type": "function"
    },
    {
      "inputs": [
        {
          "internalType": "uint256",
          "name": "team_id",
          "type": "uint256"
        }
      ],
      "name": "getTeamMates",
      "outputs": [
        {
          "internalType": "address[]",
          "name": "",
          "type": "address[]"
        }
      ],
      "stateMutability": "view",
      "type": "function"
    },
    {
      "inputs": [
        {
          "internalType": "uint256",
          "name": "_team_id",
          "type": "uint256"
        }
      ],
      "name": "getTeamSportsmanship",
      "outputs": [
        {
          "internalType": "uint256",
          "name": "",
          "type": "uint256"
        }
      ],
      "stateMutability": "view",
      "type": "function"
    },
    {
      "inputs": [
        {
          "internalType": "uint256",
          "name": "challenge_id",
          "type": "uint256"
        },
        {
          "internalType": "uint256",
          "name": "team_id",
          "type": "uint256"
        }
      ],
      "name": "increaseVoteFor",
      "outputs": [],
      "stateMutability": "nonpayable",
      "type": "function"
    },
    {
      "inputs": [],
      "name": "owner",
      "outputs": [
        {
          "internalType": "address",
          "name": "",
          "type": "address"
        }
      ],
      "stateMutability": "view",
      "type": "function"
    },
    {
      "inputs": [
        {
          "internalType": "uint256",
          "name": "",
          "type": "uint256"
        }
      ],
      "name": "pending_challenge_pool_ids",
      "outputs": [
        {
          "internalType": "uint256",
          "name": "",
          "type": "uint256"
        }
      ],
      "stateMutability": "view",
      "type": "function"
    },
    {
      "inputs": [
        {
          "internalType": "bytes",
          "name": "performData",
          "type": "bytes"
        }
      ],
      "name": "performUpkeep",
      "outputs": [],
      "stateMutability": "nonpayable",
      "type": "function"
    },
    {
      "inputs": [],
      "name": "renounceOwnership",
      "outputs": [],
      "stateMutability": "nonpayable",
      "type": "function"
    },
    {
      "inputs": [
        {
          "internalType": "uint256",
          "name": "team_id",
          "type": "uint256"
        },
        {
          "internalType": "address",
          "name": "user",
          "type": "address"
        }
      ],
      "name": "sendTeamMembershipRequest",
      "outputs": [
        {
          "internalType": "bool",
          "name": "",
          "type": "bool"
        }
      ],
      "stateMutability": "nonpayable",
      "type": "function"
    },
    {
      "inputs": [],
      "name": "sportsVybeToken",
      "outputs": [
        {
          "internalType": "contract IERC20",
          "name": "",
          "type": "address"
        }
      ],
      "stateMutability": "view",
      "type": "function"
    },
    {
      "inputs": [
        {
          "internalType": "address",
          "name": "",
          "type": "address"
        }
      ],
      "name": "sportsmanship",
      "outputs": [
        {
          "internalType": "uint256",
          "name": "",
          "type": "uint256"
        }
      ],
      "stateMutability": "view",
      "type": "function"
    },
    {
      "inputs": [
        {
          "internalType": "uint256",
          "name": "",
          "type": "uint256"
        },
        {
          "internalType": "uint256",
          "name": "",
          "type": "uint256"
        }
      ],
      "name": "team_membership_request",
      "outputs": [
        {
          "internalType": "address",
          "name": "user",
          "type": "address"
        }
      ],
      "stateMutability": "view",
      "type": "function"
    },
    {
      "inputs": [
        {
          "internalType": "uint256",
          "name": "",
          "type": "uint256"
        }
      ],
      "name": "team_owner",
      "outputs": [
        {
          "internalType": "address payable",
          "name": "",
          "type": "address"
        }
      ],
      "stateMutability": "view",
      "type": "function"
    },
    {
      "inputs": [
        {
          "internalType": "address",
          "name": "newOwner",
          "type": "address"
        }
      ],
      "name": "transferOwnership",
      "outputs": [],
      "stateMutability": "nonpayable",
      "type": "function"
    },
    {
      "inputs": [
        {
          "internalType": "address",
          "name": "",
          "type": "address"
        },
        {
          "internalType": "uint256",
          "name": "",
          "type": "uint256"
        }
      ],
      "name": "votes",
      "outputs": [
        {
          "internalType": "uint256",
          "name": "challenge_id",
          "type": "uint256"
        }
      ],
      "stateMutability": "view",
      "type": "function"
    }
  ],
  "bytecode": "0x60806040526000600c55610379600d556000600e553480156200002157600080fd5b5060405162003f2b38038062003f2b833981810160405281019062000047919062000192565b620000676200005b620000af60201b60201c565b620000b760201b60201c565b80600160006101000a81548173ffffffffffffffffffffffffffffffffffffffff021916908373ffffffffffffffffffffffffffffffffffffffff1602179055505062000217565b600033905090565b60008060009054906101000a900473ffffffffffffffffffffffffffffffffffffffff169050816000806101000a81548173ffffffffffffffffffffffffffffffffffffffff021916908373ffffffffffffffffffffffffffffffffffffffff1602179055508173ffffffffffffffffffffffffffffffffffffffff168173ffffffffffffffffffffffffffffffffffffffff167f8be0079c531659141344cd1fd0a4f28419497f9722a3daafe3b4186f6b6457e060405160405180910390a35050565b6000815190506200018c81620001fd565b92915050565b600060208284031215620001ab57620001aa620001f8565b5b6000620001bb848285016200017b565b91505092915050565b6000620001d182620001d8565b9050919050565b600073ffffffffffffffffffffffffffffffffffffffff82169050919050565b600080fd5b6200020881620001c4565b81146200021457600080fd5b50565b613d0480620002276000396000f3fe6080604052600436106101665760003560e01c80636e04ff0d116100d157806396b9ec601161008a578063c2f79bf511610064578063c2f79bf5146105b4578063d858be5d146105f1578063e704d8cc1461062e578063f2fde38b1461066b57610166565b806396b9ec60146104fd5780639f2524ee1461053a578063aa5a0c821461057757610166565b80636e04ff0d146103cf578063715018a61461040d57806371b6aa6c146104245780638a59d847146104615780638da5cb5b1461048c5780638f6dcb16146104b757610166565b80633c9547b2116101235780633c9547b2146102c5578063420d93c1146102f557806342fd189b14610320578063431148421461034b5780634585e33b1461037b57806364525551146103a457610166565b8063081134591461016b578063188e09fa146101a85780631abe0b40146101d15780632b0a2d2e1461020e57806332670a8e1461024b5780633ab266a214610288575b600080fd5b34801561017757600080fd5b50610192600480360381019061018d91906132c5565b610694565b60405161019f919061368f565b60405180910390f35b3480156101b457600080fd5b506101cf60048036038101906101ca9190613305565b6108af565b005b3480156101dd57600080fd5b506101f860048036038101906101f39190613305565b610b6d565b604051610205919061368f565b60405180910390f35b34801561021a57600080fd5b5061023560048036038101906102309190613305565b610c56565b6040516102429190613577565b60405180910390f35b34801561025757600080fd5b50610272600480360381019061026d9190613184565b610cad565b60405161027f9190613780565b60405180910390f35b34801561029457600080fd5b506102af60048036038101906102aa919061326b565b610cc5565b6040516102bc9190613592565b60405180910390f35b6102df60048036038101906102da9190613345565b610cf8565b6040516102ec9190613780565b60405180910390f35b34801561030157600080fd5b5061030a61135e565b60405161031791906136da565b60405180910390f35b34801561032c57600080fd5b50610335611384565b6040516103429190613780565b60405180910390f35b61036560048036038101906103609190613345565b611438565b604051610372919061368f565b60405180910390f35b34801561038757600080fd5b506103a2600480360381019061039d919061321e565b611879565b005b3480156103b057600080fd5b506103b96118ef565b6040516103c69190613780565b60405180910390f35b3480156103db57600080fd5b506103f660048036038101906103f1919061321e565b6119a1565b6040516104049291906136aa565b60405180910390f35b34801561041957600080fd5b50610422611a6a565b005b34801561043057600080fd5b5061044b6004803603810190610446919061326b565b611af2565b604051610458919061366d565b60405180910390f35b34801561046d57600080fd5b50610476611b93565b6040516104839190613780565b60405180910390f35b34801561049857600080fd5b506104a1611d83565b6040516104ae9190613577565b60405180910390f35b3480156104c357600080fd5b506104de60048036038101906104d9919061326b565b611dac565b6040516104f49a99989796959493929190613824565b60405180910390f35b34801561050957600080fd5b50610524600480360381019061051f919061326b565b611e27565b6040516105319190613780565b60405180910390f35b34801561054657600080fd5b50610561600480360381019061055c91906131b1565b611e4b565b60405161056e9190613780565b60405180910390f35b34801561058357600080fd5b5061059e6004803603810190610599919061326b565b611e82565b6040516105ab9190613780565b60405180910390f35b3480156105c057600080fd5b506105db60048036038101906105d6919061326b565b611ebd565b6040516105e8919061368f565b60405180910390f35b3480156105fd57600080fd5b506106186004803603810190610613919061326b565b61217e565b6040516106259190613780565b60405180910390f35b34801561063a57600080fd5b506106556004803603810190610650919061326b565b61219b565b604051610662919061366d565b60405180910390f35b34801561067757600080fd5b50610692600480360381019061068d9190613184565b61223c565b005b600080600360003373ffffffffffffffffffffffffffffffffffffffff1673ffffffffffffffffffffffffffffffffffffffff168152602001908152602001600020541415610723576064600360003373ffffffffffffffffffffffffffffffffffffffff1673ffffffffffffffffffffffffffffffffffffffff168152602001908152602001600020819055505b823373ffffffffffffffffffffffffffffffffffffffff166005600083815260200190815260200160002060009054906101000a900473ffffffffffffffffffffffffffffffffffffffff1673ffffffffffffffffffffffffffffffffffffffff16146107c757806040517fbf2fd4e50000000000000000000000000000000000000000000000000000000081526004016107be9190613780565b60405180910390fd5b6004600085815260200190815260200160002060405180602001604052808573ffffffffffffffffffffffffffffffffffffffff168152509080600181540180825580915050600190039060005260206000200160009091909190915060008201518160000160006101000a81548173ffffffffffffffffffffffffffffffffffffffff021916908373ffffffffffffffffffffffffffffffffffffffff16021790555050507fe96ddc8e1ac943b3b144abc6c8fa24de20b9ea07083e00759d6da54d794df91e8460405161089c9190613780565b60405180910390a1600191505092915050565b6009600083815260200190815260200160002060030160019054906101000a900460ff161561091557816040517f4c808ece00000000000000000000000000000000000000000000000000000000815260040161090c9190613780565b60405180910390fd5b61091e82612334565b61095f57816040517f3e6789c00000000000000000000000000000000000000000000000000000000081526004016109569190613780565b60405180910390fd5b61096882612405565b156109ac5781336040517fcde541530000000000000000000000000000000000000000000000000000000081526004016109a392919061379b565b60405180910390fd5b80600960008481526020019081526020016000206000015414156109fd5760016009600084815260200190815260200160002060060160008282546109f19190613981565b92505081905550610a8c565b8060096000848152602001908152602001600020600101541415610a4e576001600960008481526020019081526020016000206007016000828254610a429190613981565b92505081905550610a8b565b806040517fa01bb16a000000000000000000000000000000000000000000000000000000008152600401610a829190613780565b60405180910390fd5b5b600260003373ffffffffffffffffffffffffffffffffffffffff1673ffffffffffffffffffffffffffffffffffffffff168152602001908152602001600020604051806020016040528084815250908060018154018082558091505060019003906000526020600020016000909190919091506000820151816000015550507fd5fc109cf13c40fe4d200e22792800f47559eabf03dbebc445faf6a33a0c492c338383604051610b3e93929190613636565b60405180910390a1610b4f826124fb565b610b588361251b565b1415610b6957610b678261255c565b505b5050565b6000813373ffffffffffffffffffffffffffffffffffffffff166005600083815260200190815260200160002060009054906101000a900473ffffffffffffffffffffffffffffffffffffffff1673ffffffffffffffffffffffffffffffffffffffff1614610c1357806040517fbf2fd4e5000000000000000000000000000000000000000000000000000000008152600401610c0a9190613780565b60405180910390fd5b60006009600086815260200190815260200160002060030160006101000a81548160ff021916908315150217905550610c4b84612ac5565b600191505092915050565b60046020528160005260406000208181548110610c7257600080fd5b90600052602060002001600091509150508060000160009054906101000a900473ffffffffffffffffffffffffffffffffffffffff16905081565b60036020528060005260406000206000915090505481565b60056020528060005260406000206000915054906101000a900473ffffffffffffffffffffffffffffffffffffffff1681565b600080600360003373ffffffffffffffffffffffffffffffffffffffff1673ffffffffffffffffffffffffffffffffffffffff168152602001908152602001600020541415610d87576064600360003373ffffffffffffffffffffffffffffffffffffffff1673ffffffffffffffffffffffffffffffffffffffff168152602001908152602001600020819055505b833373ffffffffffffffffffffffffffffffffffffffff166005600083815260200190815260200160002060009054906101000a900473ffffffffffffffffffffffffffffffffffffffff1673ffffffffffffffffffffffffffffffffffffffff1614610e2b57806040517fbf2fd4e5000000000000000000000000000000000000000000000000000000008152600401610e229190613780565b60405180910390fd5b833373ffffffffffffffffffffffffffffffffffffffff166005600083815260200190815260200160002060009054906101000a900473ffffffffffffffffffffffffffffffffffffffff1673ffffffffffffffffffffffffffffffffffffffff161415610ed057806040517f472c49b2000000000000000000000000000000000000000000000000000000008152600401610ec79190613780565b60405180910390fd5b6000600590506000600d5490506000861415610f26576000866040517f6d400e38000000000000000000000000000000000000000000000000000000008152600401610f1d9291906136f5565b60405180910390fd5b600160009054906101000a900473ffffffffffffffffffffffffffffffffffffffff1673ffffffffffffffffffffffffffffffffffffffff166370a08231336040518263ffffffff1660e01b8152600401610f819190613577565b60206040518083038186803b158015610f9957600080fd5b505afa158015610fad573d6000803e3d6000fd5b505050506040513d601f19601f82011682018060405250810190610fd19190613298565b8610611017576000866040517f8fde25d000000000000000000000000000000000000000000000000000000000815260040161100e9291906136f5565b60405180910390fd5b600160009054906101000a900473ffffffffffffffffffffffffffffffffffffffff1673ffffffffffffffffffffffffffffffffffffffff166323b872dd3330896040518463ffffffff1660e01b8152600401611076939291906135d6565b602060405180830381600087803b15801561109057600080fd5b505af11580156110a4573d6000803e3d6000fd5b505050506040513d601f19601f820116820180604052508101906110c891906131f1565b506040518061014001604052808981526020018881526020018781526020016000151581526020016000151581526020016000151581526020014281526020018381526020016000815260200160008152506009600083815260200190815260200160002060008201518160000155602082015181600101556040820151816002015560608201518160030160006101000a81548160ff02191690831515021790555060808201518160030160016101000a81548160ff02191690831515021790555060a08201518160030160026101000a81548160ff02191690831515021790555060c0820151816004015560e0820151816005015561010082015181600601556101208201518160070155905050600b81908060018154018082558091505060019003906000526020600020016000909190919091505560005b600860008a8152602001908152602001600020805490508110156112f857600a6000838152602001908152602001600020600860008b8152602001908152602001600020828154811061125a57611259613bb8565b5b9060005260206000200160009054906101000a900473ffffffffffffffffffffffffffffffffffffffff169080600181540180825580915050600190039060005260206000200160009091909190916101000a81548173ffffffffffffffffffffffffffffffffffffffff021916908373ffffffffffffffffffffffffffffffffffffffff16021790555080806112f090613b11565b915050611204565b506001600d600082825461130c9190613981565b925050819055507f77d5bbaa1959f33c5de7724917a9cb0150bdde1bdbe056cd928f24ec723c5df681878a8a60405161134894939291906138c0565b60405180910390a1809450505050509392505050565b600160009054906101000a900473ffffffffffffffffffffffffffffffffffffffff1681565b6000600160009054906101000a900473ffffffffffffffffffffffffffffffffffffffff1673ffffffffffffffffffffffffffffffffffffffff1663dd62ed3e33306040518363ffffffff1660e01b81526004016113e39291906135ad565b60206040518083038186803b1580156113fb57600080fd5b505afa15801561140f573d6000803e3d6000fd5b505050506040513d601f19601f820116820180604052508101906114339190613298565b905090565b6000823373ffffffffffffffffffffffffffffffffffffffff166005600083815260200190815260200160002060009054906101000a900473ffffffffffffffffffffffffffffffffffffffff1673ffffffffffffffffffffffffffffffffffffffff16146114de57806040517fbf2fd4e50000000000000000000000000000000000000000000000000000000081526004016114d59190613780565b60405180910390fd5b6009600086815260200190815260200160002060030160009054906101000a900460ff161561154457846040517f02a3039a00000000000000000000000000000000000000000000000000000000815260040161153b9190613780565b60405180910390fd5b836009600087815260200190815260200160002060010154146115a05784846040517f4a2184e10000000000000000000000000000000000000000000000000000000081526004016115979291906137c4565b60405180910390fd5b6000600960008781526020019081526020016000206002015490508084146116015785816040517f6d400e380000000000000000000000000000000000000000000000000000000081526004016115f89291906137c4565b60405180910390fd5b600160009054906101000a900473ffffffffffffffffffffffffffffffffffffffff1673ffffffffffffffffffffffffffffffffffffffff1663a9059cbb30866040518363ffffffff1660e01b815260040161165e92919061360d565b602060405180830381600087803b15801561167857600080fd5b505af115801561168c573d6000803e3d6000fd5b505050506040513d601f19601f820116820180604052508101906116b091906131f1565b50836009600088815260200190815260200160002060020160008282546116d79190613981565b9250508190555060016009600088815260200190815260200160002060030160006101000a81548160ff02191690831515021790555060005b600860008781526020019081526020016000208054905081101561180457600a600088815260200190815260200160002060086000888152602001908152602001600020828154811061176657611765613bb8565b5b9060005260206000200160009054906101000a900473ffffffffffffffffffffffffffffffffffffffff169080600181540180825580915050600190039060005260206000200160009091909190916101000a81548173ffffffffffffffffffffffffffffffffffffffff021916908373ffffffffffffffffffffffffffffffffffffffff16021790555080806117fc90613b11565b915050611710565b507f06168e40fac2576e22d73ab2e9efa79b4e7530dd3dd411ab7d8862d04be798a2866009600089815260200190815260200160002060000154600960008a815260200190815260200160002060010154604051611864939291906137ed565b60405180910390a16001925050509392505050565b6000828281019061188a919061326b565b905042600960008381526020019081526020016000206005015460096000848152602001908152602001600020600401546118c59190613981565b11156118ea576001600e546118da9190613981565b600e819055506118e981612ac5565b5b505050565b6000600160009054906101000a900473ffffffffffffffffffffffffffffffffffffffff1673ffffffffffffffffffffffffffffffffffffffff166370a08231336040518263ffffffff1660e01b815260040161194c9190613577565b60206040518083038186803b15801561196457600080fd5b505afa158015611978573d6000803e3d6000fd5b505050506040513d601f19601f8201168201806040525081019061199c9190613298565b905090565b6000606060005b600b80549050811015611a62574260096000600b84815481106119ce576119cd613bb8565b5b906000526020600020015481526020019081526020016000206005015460096000600b8581548110611a0357611a02613bb8565b5b9060005260206000200154815260200190815260200160002060040154611a2a9190613981565b11925080604051602001611a3e9190613780565b60405160208183030381529060405291508080611a5a90613b11565b9150506119a8565b509250929050565b611a72612cbc565b73ffffffffffffffffffffffffffffffffffffffff16611a90611d83565b73ffffffffffffffffffffffffffffffffffffffff1614611ae6576040517f08c379a0000000000000000000000000000000000000000000000000000000008152600401611add90613760565b60405180910390fd5b611af06000612cc4565b565b6060600a6000838152602001908152602001600020805480602002602001604051908101604052809291908181526020018280548015611b8757602002820191906000526020600020905b8160009054906101000a900473ffffffffffffffffffffffffffffffffffffffff1673ffffffffffffffffffffffffffffffffffffffff1681526020019060010190808311611b3d575b50505050509050919050565b600080600360003373ffffffffffffffffffffffffffffffffffffffff1673ffffffffffffffffffffffffffffffffffffffff168152602001908152602001600020541415611c22576064600360003373ffffffffffffffffffffffffffffffffffffffff1673ffffffffffffffffffffffffffffffffffffffff168152602001908152602001600020819055505b60006001600c54611c339190613981565b9050336005600083815260200190815260200160002060006101000a81548173ffffffffffffffffffffffffffffffffffffffff021916908373ffffffffffffffffffffffffffffffffffffffff160217905550600160076000838152602001908152602001600020819055506064600660008381526020019081526020016000208190555060086000828152602001908152602001600020339080600181540180825580915050600190039060005260206000200160009091909190916101000a81548173ffffffffffffffffffffffffffffffffffffffff021916908373ffffffffffffffffffffffffffffffffffffffff1602179055507f015c069c0e6438bd2d98e0c7b6526d4f7596120b3a6ac20fd43f2aa00450b81381604051611d5c9190613780565b60405180910390a1600c6000815480929190611d7790613b11565b91905055508091505090565b60008060009054906101000a900473ffffffffffffffffffffffffffffffffffffffff16905090565b60096020528060005260406000206000915090508060000154908060010154908060020154908060030160009054906101000a900460ff16908060030160019054906101000a900460ff16908060030160029054906101000a900460ff1690806004015490806005015490806006015490806007015490508a565b600b8181548110611e3757600080fd5b906000526020600020016000915090505481565b60026020528160005260406000208181548110611e6757600080fd5b90600052602060002001600091509150508060000154905081565b600060076000838152602001908152602001600020546006600084815260200190815260200160002054611eb691906139d7565b9050919050565b600080600360003373ffffffffffffffffffffffffffffffffffffffff1673ffffffffffffffffffffffffffffffffffffffff168152602001908152602001600020541415611f4c576064600360003373ffffffffffffffffffffffffffffffffffffffff1673ffffffffffffffffffffffffffffffffffffffff168152602001908152602001600020819055505b6000805b6004600085815260200190815260200160002080549050811015612010573373ffffffffffffffffffffffffffffffffffffffff16600460008681526020019081526020016000208281548110611faa57611fa9613bb8565b5b9060005260206000200160000160009054906101000a900473ffffffffffffffffffffffffffffffffffffffff1673ffffffffffffffffffffffffffffffffffffffff161415611ffd5760019150612010565b808061200890613b11565b915050611f50565b5060008114156120595782336040517fb0cdf7e700000000000000000000000000000000000000000000000000000000815260040161205092919061379b565b60405180910390fd5b60086000848152602001908152602001600020339080600181540180825580915050600190039060005260206000200160009091909190916101000a81548173ffffffffffffffffffffffffffffffffffffffff021916908373ffffffffffffffffffffffffffffffffffffffff160217905550600160076000858152602001908152602001600020546120ed9190613981565b6007600085815260200190815260200160002081905550606460066000858152602001908152602001600020546121249190613981565b60066000858152602001908152602001600020819055507facf469d13776cbb2c2ad5f2817a7797650091c8559a1d3bba51d3ef280b72c77833360405161216c92919061379b565b60405180910390a16001915050919050565b600060076000838152602001908152602001600020549050919050565b60606008600083815260200190815260200160002080548060200260200160405190810160405280929190818152602001828054801561223057602002820191906000526020600020905b8160009054906101000a900473ffffffffffffffffffffffffffffffffffffffff1673ffffffffffffffffffffffffffffffffffffffff16815260200190600101908083116121e6575b50505050509050919050565b612244612cbc565b73ffffffffffffffffffffffffffffffffffffffff16612262611d83565b73ffffffffffffffffffffffffffffffffffffffff16146122b8576040517f08c379a00000000000000000000000000000000000000000000000000000000081526004016122af90613760565b60405180910390fd5b600073ffffffffffffffffffffffffffffffffffffffff168173ffffffffffffffffffffffffffffffffffffffff161415612328576040517f08c379a000000000000000000000000000000000000000000000000000000000815260040161231f90613740565b60405180910390fd5b61233181612cc4565b50565b600080600090505b600a6000848152602001908152602001600020805490508110156123fa573373ffffffffffffffffffffffffffffffffffffffff16600a6000858152602001908152602001600020828154811061239657612395613bb8565b5b9060005260206000200160009054906101000a900473ffffffffffffffffffffffffffffffffffffffff1673ffffffffffffffffffffffffffffffffffffffff1614156123e7576001915050612400565b80806123f290613b11565b91505061233c565b50600090505b919050565b600080600260003373ffffffffffffffffffffffffffffffffffffffff1673ffffffffffffffffffffffffffffffffffffffff168152602001908152602001600020805480602002602001604051908101604052809291908181526020016000905b8282101561249f5783829060005260206000200160405180602001604052908160008201548152505081526020019060010190612467565b5050505090506000805b82518110156124f057848382815181106124c6576124c5613bb8565b5b60200260200101516000015114156124dd57600191505b80806124e890613b11565b9150506124a9565b508092505050919050565b6000600a6000838152602001908152602001600020805490509050919050565b6000600960008381526020019081526020016000206007015460096000848152602001908152602001600020600601546125559190613981565b9050919050565b600080600090506000600960008581526020019081526020016000206007015460096000868152602001908152602001600020600601541415612811576125ef846040518060400160405280600381526020017f74696500000000000000000000000000000000000000000000000000000000008152506009600088815260200190815260200160002060000154612d88565b612645846040518060400160405280600381526020017f74696500000000000000000000000000000000000000000000000000000000008152506009600088815260200190815260200160002060010154612d88565b6000600560006009600088815260200190815260200160002060000154815260200190815260200160002060009054906101000a900473ffffffffffffffffffffffffffffffffffffffff1690506000600560006009600089815260200190815260200160002060010154815260200190815260200160002060009054906101000a900473ffffffffffffffffffffffffffffffffffffffff1690506009600087815260200190815260200160002060030160029054906101000a900460ff16158061273257506009600087815260200190815260200160002060030160019054906101000a900460ff16155b1561280a578173ffffffffffffffffffffffffffffffffffffffff166108fc6002600960008a81526020019081526020016000206002015461277491906139d7565b9081150290604051600060405180830381858888f1935050505015801561279f573d6000803e3d6000fd5b508073ffffffffffffffffffffffffffffffffffffffff166108fc6002600960008a8152602001908152602001600020600201546127dd91906139d7565b9081150290604051600060405180830381858888f19350505050158015612808573d6000803e3d6000fd5b505b50506128b0565b60096000858152602001908152602001600020600701546009600086815260200190815260200160002060060154111561287c5760096000858152602001908152602001600020600001549150600960008581526020019081526020016000206001015490506128af565b60096000858152602001908152602001600020600101549150600960008581526020019081526020016000206000015490505b5b60008214612a55576128f8846040518060400160405280600381526020017f77696e000000000000000000000000000000000000000000000000000000000081525084612d88565b612938846040518060400160405280600481526020017f6c6f73650000000000000000000000000000000000000000000000000000000081525083612d88565b60006005600084815260200190815260200160002060009054906101000a900473ffffffffffffffffffffffffffffffffffffffff1690506009600086815260200190815260200160002060030160029054906101000a900460ff1615806129c157506009600086815260200190815260200160002060030160019054906101000a900460ff16155b15612a53578073ffffffffffffffffffffffffffffffffffffffff166108fc60096000888152602001908152602001600020600201549081150290604051600060405180830381858888f19350505050158015612a22573d6000803e3d6000fd5b5060016009600087815260200190815260200160002060030160026101000a81548160ff0219169083151502179055505b505b60016009600086815260200190815260200160002060030160016101000a81548160ff0219169083151502179055507f3299dee1d6fc77e6c880256c8fe0041609bd74cb1e8d2ce5043871ba4bb491b384604051612ab39190613780565b60405180910390a18192505050919050565b600060096000838152602001908152602001600020604051806101400160405290816000820154815260200160018201548152602001600282015481526020016003820160009054906101000a900460ff161515151581526020016003820160019054906101000a900460ff161515151581526020016003820160029054906101000a900460ff16151515158152602001600482015481526020016005820154815260200160068201548152602001600782015481525050905060018160800190151590811515815250506000600560008360000151815260200190815260200160002060009054906101000a900473ffffffffffffffffffffffffffffffffffffffff169050600160009054906101000a900473ffffffffffffffffffffffffffffffffffffffff1673ffffffffffffffffffffffffffffffffffffffff1663a9059cbb8284604001516040518363ffffffff1660e01b8152600401612c2d92919061360d565b602060405180830381600087803b158015612c4757600080fd5b505af1158015612c5b573d6000803e3d6000fd5b505050506040513d601f19601f82011682018060405250810190612c7f91906131f1565b507f3299dee1d6fc77e6c880256c8fe0041609bd74cb1e8d2ce5043871ba4bb491b383604051612caf9190613780565b60405180910390a1505050565b600033905090565b60008060009054906101000a900473ffffffffffffffffffffffffffffffffffffffff169050816000806101000a81548173ffffffffffffffffffffffffffffffffffffffff021916908373ffffffffffffffffffffffffffffffffffffffff1602179055508173ffffffffffffffffffffffffffffffffffffffff168173ffffffffffffffffffffffffffffffffffffffff167f8be0079c531659141344cd1fd0a4f28419497f9722a3daafe3b4186f6b6457e060405160405180910390a35050565b612dc7826040518060400160405280600381526020017f7469650000000000000000000000000000000000000000000000000000000000815250613081565b15612e35576003600660008381526020019081526020016000206000828254612df09190613a08565b925050819055507fc9a1b498d40c2fc3d5f47f3916a1dc3f3f20d32a5e275af9254277f5fb03cd498382604051612e289291906137c4565b60405180910390a161307c565b612e74826040518060400160405280600381526020017f77696e0000000000000000000000000000000000000000000000000000000000815250613081565b15612ee2576002600660008381526020019081526020016000206000828254612e9d9190613981565b925050819055507f4545df8bdbf258e643214cfbd34c6f316adf04fd11fd845524d9e54a0268d86b8382604051612ed59291906137c4565b60405180910390a161307b565b612f21826040518060400160405280600481526020017f6c6f736500000000000000000000000000000000000000000000000000000000815250613081565b15612f8f576001600660008381526020019081526020016000206000828254612f4a9190613981565b925050819055507f1c419b24136e9a6782f0ca3fc486d3e378bf772388fbd003c50f6ac84ac40a7f8382604051612f829291906137c4565b60405180910390a161307a565b612fce826040518060400160405280600b81526020017f6e6f745f70726573656e74000000000000000000000000000000000000000000815250613081565b1561303c576005600660008381526020019081526020016000206000828254612ff79190613a08565b925050819055507fa7aa178993b430dba8a5dd432601ded7338b248c75488cf138759cdcacb7c71e838260405161302f9291906137c4565b60405180910390a1613079565b816040517f607be5dc000000000000000000000000000000000000000000000000000000008152600401613070919061371e565b60405180910390fd5b5b5b5b505050565b6000816040516020016130949190613560565b60405160208183030381529060405280519060200120836040516020016130bb9190613560565b6040516020818303038152906040528051906020012014905092915050565b6000813590506130e981613c89565b92915050565b6000815190506130fe81613ca0565b92915050565b60008083601f84011261311a57613119613bec565b5b8235905067ffffffffffffffff81111561313757613136613be7565b5b60208301915083600182028301111561315357613152613bf1565b5b9250929050565b60008135905061316981613cb7565b92915050565b60008151905061317e81613cb7565b92915050565b60006020828403121561319a57613199613bfb565b5b60006131a8848285016130da565b91505092915050565b600080604083850312156131c8576131c7613bfb565b5b60006131d6858286016130da565b92505060206131e78582860161315a565b9150509250929050565b60006020828403121561320757613206613bfb565b5b6000613215848285016130ef565b91505092915050565b6000806020838503121561323557613234613bfb565b5b600083013567ffffffffffffffff81111561325357613252613bf6565b5b61325f85828601613104565b92509250509250929050565b60006020828403121561328157613280613bfb565b5b600061328f8482850161315a565b91505092915050565b6000602082840312156132ae576132ad613bfb565b5b60006132bc8482850161316f565b91505092915050565b600080604083850312156132dc576132db613bfb565b5b60006132ea8582860161315a565b92505060206132fb858286016130da565b9150509250929050565b6000806040838503121561331c5761331b613bfb565b5b600061332a8582860161315a565b925050602061333b8582860161315a565b9150509250929050565b60008060006060848603121561335e5761335d613bfb565b5b600061336c8682870161315a565b935050602061337d8682870161315a565b925050604061338e8682870161315a565b9150509250925092565b60006133a483836133bf565b60208301905092915050565b6133b981613a4e565b82525050565b6133c881613a3c565b82525050565b6133d781613a3c565b82525050565b60006133e882613915565b6133f28185613943565b93506133fd83613905565b8060005b8381101561342e5781516134158882613398565b975061342083613936565b925050600181019050613401565b5085935050505092915050565b61344481613a60565b82525050565b600061345582613920565b61345f8185613954565b935061346f818560208601613ade565b61347881613c00565b840191505092915050565b61348c81613a96565b82525050565b61349b81613aa8565b82525050565b60006134ac8261392b565b6134b68185613965565b93506134c6818560208601613ade565b6134cf81613c00565b840191505092915050565b60006134e58261392b565b6134ef8185613976565b93506134ff818560208601613ade565b80840191505092915050565b6000613518602683613965565b915061352382613c11565b604082019050919050565b600061353b602083613965565b915061354682613c60565b602082019050919050565b61355a81613a8c565b82525050565b600061356c82846134da565b915081905092915050565b600060208201905061358c60008301846133ce565b92915050565b60006020820190506135a760008301846133b0565b92915050565b60006040820190506135c260008301856133ce565b6135cf60208301846133ce565b9392505050565b60006060820190506135eb60008301866133ce565b6135f860208301856133ce565b6136056040830184613551565b949350505050565b600060408201905061362260008301856133ce565b61362f6020830184613551565b9392505050565b600060608201905061364b60008301866133ce565b6136586020830185613551565b6136656040830184613551565b949350505050565b6000602082019050818103600083015261368781846133dd565b905092915050565b60006020820190506136a4600083018461343b565b92915050565b60006040820190506136bf600083018561343b565b81810360208301526136d1818461344a565b90509392505050565b60006020820190506136ef6000830184613483565b92915050565b600060408201905061370a6000830185613492565b6137176020830184613551565b9392505050565b6000602082019050818103600083015261373881846134a1565b905092915050565b600060208201905081810360008301526137598161350b565b9050919050565b600060208201905081810360008301526137798161352e565b9050919050565b60006020820190506137956000830184613551565b92915050565b60006040820190506137b06000830185613551565b6137bd60208301846133ce565b9392505050565b60006040820190506137d96000830185613551565b6137e66020830184613551565b9392505050565b60006060820190506138026000830186613551565b61380f6020830185613551565b61381c6040830184613551565b949350505050565b60006101408201905061383a600083018d613551565b613847602083018c613551565b613854604083018b613551565b613861606083018a61343b565b61386e608083018961343b565b61387b60a083018861343b565b61388860c0830187613551565b61389560e0830186613551565b6138a3610100830185613551565b6138b1610120830184613551565b9b9a5050505050505050505050565b60006080820190506138d56000830187613551565b6138e26020830186613551565b6138ef6040830185613551565b6138fc6060830184613551565b95945050505050565b6000819050602082019050919050565b600081519050919050565b600081519050919050565b600081519050919050565b6000602082019050919050565b600082825260208201905092915050565b600082825260208201905092915050565b600082825260208201905092915050565b600081905092915050565b600061398c82613a8c565b915061399783613a8c565b9250827fffffffffffffffffffffffffffffffffffffffffffffffffffffffffffffffff038211156139cc576139cb613b5a565b5b828201905092915050565b60006139e282613a8c565b91506139ed83613a8c565b9250826139fd576139fc613b89565b5b828204905092915050565b6000613a1382613a8c565b9150613a1e83613a8c565b925082821015613a3157613a30613b5a565b5b828203905092915050565b6000613a4782613a6c565b9050919050565b6000613a5982613a6c565b9050919050565b60008115159050919050565b600073ffffffffffffffffffffffffffffffffffffffff82169050919050565b6000819050919050565b6000613aa182613aba565b9050919050565b6000613ab382613a8c565b9050919050565b6000613ac582613acc565b9050919050565b6000613ad782613a6c565b9050919050565b60005b83811015613afc578082015181840152602081019050613ae1565b83811115613b0b576000848401525b50505050565b6000613b1c82613a8c565b91507fffffffffffffffffffffffffffffffffffffffffffffffffffffffffffffffff821415613b4f57613b4e613b5a565b5b600182019050919050565b7f4e487b7100000000000000000000000000000000000000000000000000000000600052601160045260246000fd5b7f4e487b7100000000000000000000000000000000000000000000000000000000600052601260045260246000fd5b7f4e487b7100000000000000000000000000000000000000000000000000000000600052603260045260246000fd5b600080fd5b600080fd5b600080fd5b600080fd5b600080fd5b6000601f19601f8301169050919050565b7f4f776e61626c653a206e6577206f776e657220697320746865207a65726f206160008201527f6464726573730000000000000000000000000000000000000000000000000000602082015250565b7f4f776e61626c653a2063616c6c6572206973206e6f7420746865206f776e6572600082015250565b613c9281613a3c565b8114613c9d57600080fd5b50565b613ca981613a60565b8114613cb457600080fd5b50565b613cc081613a8c565b8114613ccb57600080fd5b5056fea2646970667358221220fb5e12b374fedfd83a494f1566ae3c2ff6d7f2f4152783f07677f861a201423f64736f6c63430008070033",
  "linkReferences": {},
  "deployedLinkReferences": {}
}